{
  "_format": "hh-sol-artifact-1",
  "contractName": "NextPay",
  "sourceName": "contracts/TechPay.sol",
  "abi": [
    {
      "anonymous": false,
      "inputs": [
        {
          "indexed": false,
          "internalType": "address",
          "name": "recipent",
          "type": "address"
        },
        {
          "indexed": false,
          "internalType": "uint256",
          "name": "tweetId",
          "type": "uint256"
        }
      ],
      "name": "AddTweet",
      "type": "event"
    },
    {
      "anonymous": false,
      "inputs": [
        {
          "indexed": false,
          "internalType": "address",
          "name": "recipent",
          "type": "address"
        },
        {
          "indexed": false,
          "internalType": "uint256",
          "name": "tweetId",
          "type": "uint256"
        }
      ],
      "name": "DeleteTweet",
      "type": "event"
    },
    {
      "inputs": [
        {
          "internalType": "string",
          "name": "textTweet",
          "type": "string"
        },
        {
          "internalType": "bool",
          "name": "isDeleted",
          "type": "bool"
        }
      ],
      "name": "addNewTweet",
      "outputs": [],
      "stateMutability": "nonpayable",
      "type": "function"
    },
    {
      "inputs": [
        {
          "internalType": "uint256",
          "name": "id",
          "type": "uint256"
        },
        {
          "internalType": "bool",
          "name": "isDeleted",
          "type": "bool"
        }
      ],
      "name": "deleteTweet",
      "outputs": [],
      "stateMutability": "nonpayable",
      "type": "function"
    },
    {
      "inputs": [],
      "name": "getAllTweet",
      "outputs": [
        {
          "components": [
            {
              "internalType": "uint256",
              "name": "id",
              "type": "uint256"
            },
            {
              "internalType": "address",
              "name": "username",
              "type": "address"
            },
            {
              "internalType": "bool",
              "name": "isDelete",
              "type": "bool"
            },
            {
              "internalType": "string",
              "name": "tweetText",
              "type": "string"
            }
          ],
          "internalType": "struct NextPay.Tweet[]",
          "name": "",
          "type": "tuple[]"
        }
      ],
      "stateMutability": "view",
      "type": "function"
    },
    {
      "inputs": [],
      "name": "getMyTweet",
      "outputs": [
        {
          "components": [
            {
              "internalType": "uint256",
              "name": "id",
              "type": "uint256"
            },
            {
              "internalType": "address",
              "name": "username",
              "type": "address"
            },
            {
              "internalType": "bool",
              "name": "isDelete",
              "type": "bool"
            },
            {
              "internalType": "string",
              "name": "tweetText",
              "type": "string"
            }
          ],
          "internalType": "struct NextPay.Tweet[]",
          "name": "",
          "type": "tuple[]"
        }
      ],
      "stateMutability": "view",
      "type": "function"
    }
  ],
  "bytecode": "0x608060405234801561001057600080fd5b50611347806100206000396000f3fe608060405234801561001057600080fd5b506004361061004c5760003560e01c8063675e0fb714610051578063bf43fc6e1461006f578063c9860f0c1461008b578063f0312a37146100a9575b600080fd5b6100596100c5565b6040516100669190610c44565b60405180910390f35b61008960048036038101906100849190610ddb565b61039a565b005b610093610520565b6040516100a09190610c44565b60405180910390f35b6100c360048036038101906100be9190610e63565b610872565b005b60606000808054905067ffffffffffffffff8111156100e7576100e6610c84565b5b60405190808252806020026020018201604052801561012057816020015b61010d6109da565b8152602001906001900390816101055790505b5090506000805b6000805490508110156102e657600015156000828154811061014c5761014b610ea3565b5b906000526020600020906003020160010160149054906101000a900460ff161515036102d9576000818154811061018657610185610ea3565b5b9060005260206000209060030201604051806080016040529081600082015481526020016001820160009054906101000a900473ffffffffffffffffffffffffffffffffffffffff1673ffffffffffffffffffffffffffffffffffffffff1673ffffffffffffffffffffffffffffffffffffffff1681526020016001820160149054906101000a900460ff1615151515815260200160028201805461022a90610f01565b80601f016020809104026020016040519081016040528092919081815260200182805461025690610f01565b80156102a35780601f10610278576101008083540402835291602001916102a3565b820191906000526020600020905b81548152906001019060200180831161028657829003601f168201915b5050505050815250508383815181106102bf576102be610ea3565b5b602002602001018190525081806102d590610f61565b9250505b8080600101915050610127565b5060008167ffffffffffffffff81111561030357610302610c84565b5b60405190808252806020026020018201604052801561033c57816020015b6103296109da565b8152602001906001900390816103215790505b50905060005b828110156103905783818151811061035d5761035c610ea3565b5b602002602001015182828151811061037857610377610ea3565b5b60200260200101819052508080600101915050610342565b5080935050505090565b600080805490509050600060405180608001604052808381526020013373ffffffffffffffffffffffffffffffffffffffff16815260200184151581526020018581525090806001815401808255809150506001900390600052602060002090600302016000909190919091506000820151816000015560208201518160010160006101000a81548173ffffffffffffffffffffffffffffffffffffffff021916908373ffffffffffffffffffffffffffffffffffffffff16021790555060408201518160010160146101000a81548160ff021916908315150217905550606082015181600201908161048d9190611155565b505050336001600083815260200190815260200160002060006101000a81548173ffffffffffffffffffffffffffffffffffffffff021916908373ffffffffffffffffffffffffffffffffffffffff1602179055507f8b2db9b424f26463510ef5b02c16f2465836b52081b51d2112ec76102053bdea3382604051610513929190611245565b60405180910390a1505050565b60606000808054905067ffffffffffffffff81111561054257610541610c84565b5b60405190808252806020026020018201604052801561057b57816020015b6105686109da565b8152602001906001900390816105605790505b5090506000805b6000805490508110156107be5760001515600082815481106105a7576105a6610ea3565b5b906000526020600020906003020160010160149054906101000a900460ff16151514801561064557503373ffffffffffffffffffffffffffffffffffffffff16600082815481106105fb576105fa610ea3565b5b906000526020600020906003020160010160009054906101000a900473ffffffffffffffffffffffffffffffffffffffff1673ffffffffffffffffffffffffffffffffffffffff16145b156107b1576000818154811061065e5761065d610ea3565b5b9060005260206000209060030201604051806080016040529081600082015481526020016001820160009054906101000a900473ffffffffffffffffffffffffffffffffffffffff1673ffffffffffffffffffffffffffffffffffffffff1673ffffffffffffffffffffffffffffffffffffffff1681526020016001820160149054906101000a900460ff1615151515815260200160028201805461070290610f01565b80601f016020809104026020016040519081016040528092919081815260200182805461072e90610f01565b801561077b5780601f106107505761010080835404028352916020019161077b565b820191906000526020600020905b81548152906001019060200180831161075e57829003601f168201915b50505050508152505083838151811061079757610796610ea3565b5b602002602001018190525081806107ad90610f61565b9250505b8080600101915050610582565b5060008167ffffffffffffffff8111156107db576107da610c84565b5b60405190808252806020026020018201604052801561081457816020015b6108016109da565b8152602001906001900390816107f95790505b50905060005b828110156108685783818151811061083557610834610ea3565b5b60200260200101518282815181106108505761084f610ea3565b5b6020026020010181905250808060010191505061081a565b5080935050505090565b813373ffffffffffffffffffffffffffffffffffffffff166001600083815260200190815260200160002060009054906101000a900473ffffffffffffffffffffffffffffffffffffffff1673ffffffffffffffffffffffffffffffffffffffff1614610914576040517f08c379a000000000000000000000000000000000000000000000000000000000815260040161090b906112f1565b60405180910390fd5b60005b60008054905081101561099b57836000828154811061093957610938610ea3565b5b9060005260206000209060030201600001540361098e57826000828154811061096557610964610ea3565b5b906000526020600020906003020160010160146101000a81548160ff0219169083151502179055505b8080600101915050610917565b507f0a3c603c75e5590afc30b6142c559d84c79ce628b0ecdc9452d0fabe761a5d3e33846040516109cd929190611245565b60405180910390a1505050565b604051806080016040528060008152602001600073ffffffffffffffffffffffffffffffffffffffff168152602001600015158152602001606081525090565b600081519050919050565b600082825260208201905092915050565b6000819050602082019050919050565b6000819050919050565b610a5981610a46565b82525050565b600073ffffffffffffffffffffffffffffffffffffffff82169050919050565b6000610a8a82610a5f565b9050919050565b610a9a81610a7f565b82525050565b60008115159050919050565b610ab581610aa0565b82525050565b600081519050919050565b600082825260208201905092915050565b60005b83811015610af5578082015181840152602081019050610ada565b60008484015250505050565b6000601f19601f8301169050919050565b6000610b1d82610abb565b610b278185610ac6565b9350610b37818560208601610ad7565b610b4081610b01565b840191505092915050565b6000608083016000830151610b636000860182610a50565b506020830151610b766020860182610a91565b506040830151610b896040860182610aac565b5060608301518482036060860152610ba18282610b12565b9150508091505092915050565b6000610bba8383610b4b565b905092915050565b6000602082019050919050565b6000610bda82610a1a565b610be48185610a25565b935083602082028501610bf685610a36565b8060005b85811015610c325784840389528151610c138582610bae565b9450610c1e83610bc2565b925060208a01995050600181019050610bfa565b50829750879550505050505092915050565b60006020820190508181036000830152610c5e8184610bcf565b905092915050565b6000604051905090565b600080fd5b600080fd5b600080fd5b600080fd5b7f4e487b7100000000000000000000000000000000000000000000000000000000600052604160045260246000fd5b610cbc82610b01565b810181811067ffffffffffffffff82111715610cdb57610cda610c84565b5b80604052505050565b6000610cee610c66565b9050610cfa8282610cb3565b919050565b600067ffffffffffffffff821115610d1a57610d19610c84565b5b610d2382610b01565b9050602081019050919050565b82818337600083830152505050565b6000610d52610d4d84610cff565b610ce4565b905082815260208101848484011115610d6e57610d6d610c7f565b5b610d79848285610d30565b509392505050565b600082601f830112610d9657610d95610c7a565b5b8135610da6848260208601610d3f565b91505092915050565b610db881610aa0565b8114610dc357600080fd5b50565b600081359050610dd581610daf565b92915050565b60008060408385031215610df257610df1610c70565b5b600083013567ffffffffffffffff811115610e1057610e0f610c75565b5b610e1c85828601610d81565b9250506020610e2d85828601610dc6565b9150509250929050565b610e4081610a46565b8114610e4b57600080fd5b50565b600081359050610e5d81610e37565b92915050565b60008060408385031215610e7a57610e79610c70565b5b6000610e8885828601610e4e565b9250506020610e9985828601610dc6565b9150509250929050565b7f4e487b7100000000000000000000000000000000000000000000000000000000600052603260045260246000fd5b7f4e487b7100000000000000000000000000000000000000000000000000000000600052602260045260246000fd5b60006002820490506001821680610f1957607f821691505b602082108103610f2c57610f2b610ed2565b5b50919050565b7f4e487b7100000000000000000000000000000000000000000000000000000000600052601160045260246000fd5b6000610f6c82610a46565b91507fffffffffffffffffffffffffffffffffffffffffffffffffffffffffffffffff8203610f9e57610f9d610f32565b5b600182019050919050565b60008190508160005260206000209050919050565b60006020601f8301049050919050565b600082821b905092915050565b60006008830261100b7fffffffffffffffffffffffffffffffffffffffffffffffffffffffffffffffff82610fce565b6110158683610fce565b95508019841693508086168417925050509392505050565b6000819050919050565b600061105261104d61104884610a46565b61102d565b610a46565b9050919050565b6000819050919050565b61106c83611037565b61108061107882611059565b848454610fdb565b825550505050565b600090565b611095611088565b6110a0818484611063565b505050565b5b818110156110c4576110b960008261108d565b6001810190506110a6565b5050565b601f821115611109576110da81610fa9565b6110e384610fbe565b810160208510156110f2578190505b6111066110fe85610fbe565b8301826110a5565b50505b505050565b600082821c905092915050565b600061112c6000198460080261110e565b1980831691505092915050565b6000611145838361111b565b9150826002028217905092915050565b61115e82610abb565b67ffffffffffffffff81111561117757611176610c84565b5b6111818254610f01565b61118c8282856110c8565b600060209050601f8311600181146111bf57600084156111ad578287015190505b6111b78582611139565b86555061121f565b601f1984166111cd86610fa9565b60005b828110156111f5578489015182556001820191506020850194506020810190506111d0565b86831015611212578489015161120e601f89168261111b565b8355505b6001600288020188555050505b505050505050565b61123081610a7f565b82525050565b61123f81610a46565b82525050565b600060408201905061125a6000830185611227565b6112676020830184611236565b9392505050565b600082825260208201905092915050565b7f594f5520444f204e4f5420484156452054484520415554484f5249545920544f60008201527f2054414b45205448495320414354494f4e210000000000000000000000000000602082015250565b60006112db60328361126e565b91506112e68261127f565b604082019050919050565b6000602082019050818103600083015261130a816112ce565b905091905056fea2646970667358221220c98fdd1bcbdee84578192d5a82f636a1f7a7b73a288403641a92263e61ec531464736f6c63430008180033",
  "linkReferences": {},
  "deployedLinkReferences": {}
}